:1000000045C0000062C0000060C000005EC000008B
:100010005CC000005AC0000058C0000056C000007C
:1000200054C000008BC4000050C000004EC000004F
:100030004CC000004AC0000048C0000046C000009C
:100040003FC4000042C00000A1C400003EC0000048
:100050003CC000003AC0000038C0000036C00000BC
:1000600034C0000032C0000030C000002EC00000CC
:100070002CC000002AC0000028C0000026C00000DC
:1000800024C0000022C0000020C0000011241FBEB8
:10009000CFEFD0E1DEBFCDBF12E0A0E0B1E0ECE9F0
:1000A000FCE100E00BBF02C007900D92AC30B1073D
:1000B000D9F722E0ACE0B2E001C01D92A13CB2074A
:1000C000E1F70E94460A0C944C0E9ACF20E049E3D7
:1000D00050E06AE370E08CE192E0BCD521E049E3B6
:1000E00050E06AE370E083E292E0B4D522E049E3B5
:1000F00050E06AE370E089E292E0ACD523E049E3A6
:1001000050E06AE370E083E192E0A4D580E079D02A
:1001100080E071D080E07BD080E067D01092220236
:1001200010921B0281E08093190210921A02089526
:1001300089E292E09CD58130D9F45AD68091190297
:100140008F5F8093190263D010921B0280E059D018
:100150001092220280E04FD010921A0280E045D027
:1001600080911902853021F481E0809319024FD0EB
:1001700083E192E07CD5813079F44CD680911A02EB
:100180008F5F80931A0231D080911A02823020F062
:1001900010921A0280E029C008958CE192E067D5A0
:1001A0008130A1F401D680911B028F5F80931B02E6
:1001B00028D080911B02843028F008D610921B02B0
:1001C00080E01FD080E017D080E00FD083E292E083
:1001D0004ED5813031F41ED681E00DD080911B02C6
:1001E00010C0089580912F02089580932F020895E2
:1001F00080913002089580933002089580913102F9
:100200000895809331020895809132020895809379
:100210003202089536D60C94A10908951F93CF9306
:10022000DF93CDB7DEB76E970FB6F894DEBF0FBE83
:10023000CDBF182F46E351E063E080E00E94EE0955
:100240001130B9F028F0123029F11330A1F143C078
:100250008DE0E1E4F1E0DE01119601900D928A95C6
:10026000E1F7AE014F5F5F4F63E081E00E94EE096E
:1002700032C08CE0EEE4F1E0DE01119601900D92C7
:100280008A95E1F7AE014F5F5F4F63E081E00E9426
:10029000EE0921C08DE0EAE5F1E0DE011196019062
:1002A0000D928A95E1F7AE014F5F5F4F63E081E009
:1002B0000E94EE0910C08DE0E7E6F1E0DE01119644
:1002C00001900D928A95E1F7AE014F5F5F4F63E0B9
:1002D00081E00E94EE096E960FB6F894DEBF0FBE65
:1002E000CDBFDF91CF911F910895AF92BF92DF9262
:1002F000EF92FF920F931F93CF93DF93CDB7DEB7AB
:100300006E970FB6F894DEBF0FBECDBF182FF62E36
:10031000E42E59010F2EF4E6DF2EF02D842F90E00D
:10032000D69E800D911D1124B4D71F921F9384E790
:1003300091E09F938F938E010F5F1F4F1F930F9339
:100340000E94710BA80162E080E00E94EE09950115
:10035000ADECBCEC0E94070BAC0156954795569549
:100360004795569547959A01369527953695279541
:10037000ABE7B4E10E94070B96958795D89E900154
:10038000D99E300D1124421B530B5F934F931F9244
:10039000EF921F92FF9281E891E09F938F931F93BA
:1003A0000F930E94710BA80163E081E00E94EE09A7
:1003B0000FB6F894DEBF0FBECDBF6E960FB6F894A1
:1003C000DEBF0FBECDBFDF91CF911F910F91FF9088
:1003D000EF90DF90BF90AF900895AF92BF92DF9201
:1003E000EF92FF920F931F93CF93DF93CDB7DEB7BA
:1003F0006E970FB6F894DEBF0FBECDBFF62EE42E7B
:1004000059010F2EF4E6DF2EF02D842F90E0D69EBA
:10041000800D911D11243DD71F92FF9284E791E03A
:100420009F938F938E010F5F1F4F1F930F930E9417
:10043000710BA80162E080E0D1D79501ADECBCEC76
:100440000E94070BAC0156954795569547955695D2
:1004500047959A013695279536952795ABE7B4E1F0
:100460000E94070B96958795D89E9001D99E300DD6
:100470001124421B530B5F934F931F92EF921F92D5
:10048000FF9281E891E09F938F931F930F930E94B7
:10049000710BA80163E081E0A1D70FB6F894DEBF2D
:1004A0000FBECDBF6E960FB6F894DEBF0FBECDBFA8
:1004B000DF91CF911F910F91FF90EF90DF90BF9050
:1004C000AF90089510923A021092390210924902A8
:1004D0001092480210924702109246021092420275
:1004E000109241021092400210923F021092340288
:1004F000109233021092440210924302109238027A
:1005000010923702089574DE813039F54091390236
:1005100050913A024F5F5F4F9A0136952795369575
:10052000279536952795A5ECB0E20E94070B92958A
:1005300082958F7089279F70892768EE73E0869F68
:100540009001879F300D969F300D1124CA01821BA8
:10055000930B90933A0280933902809139029091E3
:100560003A02892B01F540914802509149024F5FB0
:100570005F4F9A01A9E8B8E80E94070B9695879506
:10058000929582958F7089279F7089276CE3689F69
:100590009001699F300D1124CA01821B930B909327
:1005A000490280934802089590E090934B02809313
:1005B0004A0270E070933D0260933C0250E0509319
:1005C0004D0240934C0230934F0220934E02089507
:1005D000CF9308DEC82F18DEC13009F056C088233B
:1005E00009F453C080914E0290914F02009709F098
:1005F00047C087EE93E090934F0280934E02809124
:100600004C0290914D020097A9F58BE390E09093F6
:100610004D0280934C0280913C0290913D020097E4
:1006200019F58BE390E090933D0280933C0280911A
:100630004A0290914B02009789F410924B0210925B
:100640004A0210923D0210923C0210924D0210920A
:100650004C0210924F0210924E0217C001979093D5
:100660004B0280934A0211C0019790933D02809300
:100670003C020BC0019790934D0280934C0205C041
:10068000019790934F0280934E02CF91089580E09E
:10069000BEDD80E0AADD80E0B4DD80E0ACCD089571
:1006A0001092400210923F021092340210923302D4
:1006B00010924402109243021092380210923702B4
:1006C000089580913B02823061F018F4813039F056
:1006D0000895833069F1843009F453C00895D7CF69
:1006E000089520914E0230914F0240914C0260914A
:1006F0003C0283E0FADD80913C0290913D02892B1F
:1007000009F062C080914C0290914D02892B09F052
:100710005BC080914E0290914F02892B09F054C02A
:1007200010923B0280E073DD80E05FDD85C30895B9
:1007300085E090E0909338028093370220914E023A
:1007400030914F0240914C0260913C02CEDD80918D
:100750003C0290913D02892BB9F580914C02909119
:100760004D02892B89F580914E0290914F02892B81
:1007700059F510923B0280E04ADD80E036DD5CC333
:10078000089520914E0230914F0240914C026091A9
:100790003C0287E0AADD80913C0290913D02892BCA
:1007A00099F480914C0290914D02892B69F48091CB
:1007B0004E0290914F02892B39F410923B0280E057
:1007C00026DD80E012DD38C3089580913B0282303F
:1007D000C1F018F4813039F00895833039F1843054
:1007E00009F439C0089510923E0281E080933B02E3
:1007F00080E090E04ED580913B0209DD51DF47CF8C
:10080000089510923E0220E030E040E063E080E096
:10081000CBDE20E030E040E063E080E0DEDD82E03F
:1008200080933B02F4DC80E0E0CC089510923E021D
:1008300020E030E045E060E080E0B6DE20E030E03F
:1008400040E065E080E0C9DD83E080933B02DFDCCF
:1008500080E0CBCC089510923E0220E030E040E0F2
:1008600067E080E0A1DE20E030E040E067E080E08B
:10087000B4DD84E080933B02CADC80E0B6CC08950E
:10088000C3DC80933B02AEDC80935002813071F474
:1008900080913B0281110AC081E080933B0210925B
:1008A000500280E0A2DC80913B02B1DC80915002DA
:1008B000813011F406CF0895811101C086CF0895CB
:1008C0001F920F920FB60F9211240BB60F922F9317
:1008D0003F934F935F936F937F938F939F93AF93C8
:1008E000BF93EF93FF938ADC811109C08DDC8230C6
:1008F00030F480E090E0CED382E882BF0CC07EDC92
:10090000882331F087E594E0C5D382E882BF03C035
:10091000C5D482E882BFFF91EF91BF91AF919F91C3
:100920008F917F916F915F914F913F912F910F9098
:100930000BBE0F900FBE0F901F9018951F920F9235
:100940000FB60F9211240BB60F922F933F934F9334
:100950005F936F937F938F939F93AF93BF93EF9327
:10096000FF93D1DD35DEFF91EF91BF91AF919F9164
:100970008F917F916F915F914F913F912F910F9048
:100980000BBE0F900FBE0F901F9018951F920F92E5
:100990000FB60F9211240BB60F922F933F934F93E4
:1009A0005F936F937F938F939F93AF93BF93EF93D7
:1009B000FF93EDD5FF91EF91BF91AF919F918F91F3
:1009C0007F916F915F914F913F912F910F900BBE4F
:1009D0000F900FBE0F901F901895C6D5ACD5B4D50B
:1009E00063D474DB17DC35D595D16CDD10924002F1
:1009F00010923F021092340210923302109244027D
:100A000010924302109238021092370259D18FD1BE
:100A10005BC10895809153028130C1F030F0823083
:100A200041F1833009F439C00895F8DBE6D48091B0
:100A30005302E7DB80914802823009F041C081E037
:100A400080935302DEDB109248020895E7DBCFD497
:100A500068EE73E084E00ED580915302D2DB809182
:100A60004802823069F580935302CBDB1092480232
:100A70000895D4DBBCD460E476E082E0FBD48091BE
:100A80005302BFDB809148028230D1F483E080932F
:100A90005302B7DB109248020895C0DBA8D460ED82
:100AA00077E081E0E7D480915302ABDB809148028C
:100AB000823031F481E080935302A3DB109248022C
:100AC000089580915302813061F028F0823099F0CE
:100AD0008330D9F00895A2DB90D48091530291CB5A
:100AE00008959CDB84D468EE73E084E0C3D48091E5
:100AF000530287CB089592DB7AD460E476E082E0FB
:100B0000B9D4809153027DCB089588DB70D460ED19
:100B100077E081E0AFD48091530273CB0895CF93F7
:100B2000DF9353D5882309F460C02AD551D5EC0151
:100B300064E971E09DD5892B81F41092530280E025
:100B400060DB1092220280E056DB8091530281111B
:100B50004CC08EE991E095D548C06FEA71E0CE01B6
:100B600087D5892B69F481E0809353024ADB809119
:100B70005302813009F039C085EB91E082D535C050
:100B800062EC71E0CE0174D5892B61F482E0809330
:100B9000530237DB80915302823039F58AEC91E0C1
:100BA00070D523C069ED71E0CE0162D5892B61F467
:100BB00083E08093530225DB809153028330A9F4B4
:100BC00081EE91E05ED511C060EF71E0CE0150D5AD
:100BD000892B59F481E0809322020DDB809122025F
:100BE000813019F48AEF91E04CD5DF91CF910895CF
:100BF00096DF9EDA09DB80935202F4DA8093540286
:100C00003FDE80915202882359F08091540288235C
:100C100031F0EDD368EE73E084E02CC40895EDD399
:100C2000809152028230A8F480915402813089F080
:100C3000B4DAE4DA80935302DBDA80934802D8DA3C
:100C400080932202813011F4E5CE0895811101C014
:100C500038CF0895FC01CB017183608353834283B5
:100C6000248331E03583422F60E024C40895CF937C
:100C7000DF93EC016C818A819B8153D4982F811181
:100C80000BC08D81813041F4EFE3FCE93197F1F73E
:100C900000C000001D8211C0992361F08D81811177
:100CA0000BC0EFE3FCE93197F1F700C0000091E0E1
:100CB0009D8303C082E001C082E0DF91CF9108955F
:100CC0008FB580688FBD08958FB58F738FBD0895E0
:100CD0006436710528F0693883E1780720F405C08F
:100CE00064E670E002C068E873E19B0140E050E018
:100CF00060E970ED83E090E06ED42150310937BD9A
:100D000026BD86B597B596958795969587959BBD93
:100D10008ABD08958EB583608EBD8EB588618EBD07
:100D20008FB582608FBD87B3806287BB089568E509
:100D300072E084E0CDDF2FEF81EE94E0215080401F
:100D40009040E1F700C000001DBC1CBC60E273E0F5
:100D500084E0BEDF2FEF81EE94E021508040904090
:100D6000E1F700C000001DBC1CBC64E873E084E037
:100D7000AFDF2FEF81EE94E0215080409040E1F70B
:100D800000C000001DBC1CBC68EE73E084E0A0DF66
:100D90002FEF81EE94E0215080409040E1F700C0B9
:100DA00000001DBC1CBC08958BDF68E572E084E088
:100DB0008FDF2FEF81EE94E0215080409040E1F7EB
:100DC00000C000001DBC1CBC7FCF089579DF60E926
:100DD00071E084E07DDF2FEF81EE94E021508040D0
:100DE0009040E1F700C000001DBC1CBC6DCF089511
:100DF00067DF60E273E084E06BDF2FEF81EE94E069
:100E0000215080409040E1F700C000001DBC1CBC98
:100E10005BCF089555DF66E272E084E059DF2FEF83
:100E200081EE94E0215080409040E1F700C0000046
:100E30001DBC1CBC49CF089543DF60E273E084E031
:100E400047DF2FEF83EC99E0215080409040E1F79D
:100E500000C000001DBC1CBC68E572E084E038DF07
:100E60002FEF83EC99E0215080409040E1F700C0E3
:100E700000001DBC1CBC64EF71E084E029DF24CFBE
:100E800008958FEE82B98FEF809361000895CF931C
:100E9000DF93CDB7DEB72A970FB6F894DEBF0FBE4B
:100EA000CDBF8AE0EEE0F1E0DE01119601900D92F7
:100EB0008A95E1F780910D0290E001968370907819
:100EC000992324F401978C6F9F6F019680930D02F4
:100ED000813009F443C038F0823009F475C08330A2
:100EE00009F4A5C0CEC083B1806F83B980EE83B909
:100EF000209110023091110236952795369527954D
:100F000036952795A5ECB0E282D3AC015295429577
:100F10004F7045275F7045279A01ADECBCEC77D345
:100F20009695879596958795969587959C01220F1E
:100F3000331F880F991F880F991F880F991F820FE1
:100F4000931F9A01281B390BE1E0F0E0EC0FFD1F25
:100F5000E20FF31F80818093620093C083B1806FA2
:100F600083B980ED83B9209110023091110236953A
:100F7000279536952795ABE7B4E149D3AC01569553
:100F800047959A01ADECBCEC42D396958795969522
:100F90008795969587959C01220F331F880F991F7F
:100FA000880F991F880F991F820F931F9A01281B82
:100FB000390BE1E0F0E0EC0FFD1FE20FF31F808141
:100FC0008068809362005DC083B1806F83B980EBDD
:100FD00083B92091100230911102ADECBCEC17D313
:100FE000AC015695479556954795569547959A0164
:100FF0000ED39695879596958795969587959C019E
:10100000220F331F880F991F880F991F880F991F70
:10101000820F931F9A01281B390BE1E0F0E0EC0FDF
:10102000FD1FE20FF31F8081809362002AC083B10D
:10103000806F83B980E783B940911002509111020B
:101040009A01ADECBCECE3D2969587959695879581
:10105000969587959C01220F331F880F991F880F43
:10106000991F880F991F820F931F9A01281B390B14
:10107000E1E0F0E0EC0FFD1FE20FF31F80818093B1
:1010800062002A960FB6F894DEBF0FBECDBFDF9187
:10109000CF910895CF93DF9300D000D01F92CDB7AA
:1010A000DEB785E0E8E1F1E0DE01119601900D92F6
:1010B0008A95E1F780910C0290E001968370907818
:1010C000992324F401978C6F9F6F019680930C02F3
:1010D000813009F443C038F0823009F475C08330A0
:1010E00009F4A5C0CEC083B1806F83B980EE83B907
:1010F00020910E0230910F0236952795369527954F
:1011000036952795A5ECB0E282D2AC015295429576
:101110004F7045275F7045279A01ADECBCEC77D244
:101120009695879596958795969587959C01220F1C
:10113000331F880F991F880F991F880F991F820FDF
:10114000931F9A01281B390BE1E0F0E0EC0FFD1F23
:10115000E20FF31F80818093620093C083B1806FA0
:1011600083B980ED83B920910E0230910F0236953C
:10117000279536952795ABE7B4E149D2AC01569552
:1011800047959A01ADECBCEC42D296958795969521
:101190008795969587959C01220F331F880F991F7D
:1011A000880F991F880F991F820F931F9A01281B80
:1011B000390BE1E0F0E0EC0FFD1FE20FF31F80813F
:1011C0008068809362005DC083B1806F83B980EBDB
:1011D00083B920910E0230910F02ADECBCEC17D216
:1011E000AC015695479556954795569547959A0162
:1011F0000ED29695879596958795969587959C019D
:10120000220F331F880F991F880F991F880F991F6E
:10121000820F931F9A01281B390BE1E0F0E0EC0FDD
:10122000FD1FE20FF31F8081809362002AC083B10B
:10123000806F83B980E783B940910E0250910F020D
:101240009A01ADECBCECE3D1969587959695879580
:10125000969587959C01220F331F880F991F880F41
:10126000991F880F991F820F931F9A01281B390B12
:10127000E1E0F0E0EC0FFD1FE20FF31F80818093AF
:1012800062000F900F900F900F900F90DF91CF9111
:101290000895909311028093100208958091100296
:1012A00090911102F4CD089544E061E087E390E06D
:1012B00001D146E061E087E390E0FCD047E061E0E7
:1012C00087E390E0F7D061E084E390E0EAC008951E
:1012D00040E064E088E390E00AC1089541E064E002
:1012E00088E390E004C1089540E066E088E390E080
:1012F000FEC0089541E067E088E390E0F8D08FE910
:101300009FE00197F1F700C00000089540E067E01A
:1013100088E390E0ECD08FE99FE00197F1F700C0FF
:1013200000000895682F85E390E0DEC00895CF9314
:10133000C82FCEDFD9DFDEDF8C2FF4DFE7DFCF91E0
:101340000895B2DF8FE59AEE0197F1F700C0000033
:1013500088E3EDDF8FE19EE40197F1F700C0000024
:1013600088E3E5DF8FE99FE00197F1F700C0000017
:1013700088E3DDDF88E3DBDF88E0D9DF81E0D7DFEA
:1013800086E0D5DF8CE0D3CF0895CF93C82FA6DFBA
:10139000ABDFB0DF8C2FC6DFB9DFCF9108950F939D
:1013A0001F93CF93DF938C01C0E0D0E002C0EDDF4C
:1013B0002196F801EC0FFD1F80818111F8CFDF919C
:1013C000CF911F910F9108956F70817090E4899F64
:1013D000600D1124862F8058AACF0895CF93DF93F4
:1013E000EA01F2DFCE01DBDFDF91CF910895EBE878
:1013F000F0E08081806880830895EBE8F0E08081F0
:101400008F73808308956436710528F0693883E10D
:10141000780720F405C064E670E002C068E873E174
:101420009B0140E050E060E970ED83E090E0D3D0B4
:1014300021503109E0E8F0E03183208380819181FF
:1014400096958795969587959093870080938600CB
:101450000895EAE8F0E0808183608083808188617C
:101460008083EBE8F0E080818260808382B18860D5
:1014700082B90895C8DF8FE39CE90197F1F700C0B6
:10148000000010928900109288000895A6DA80E08A
:1014900091E09093BE028093BD02789440DBA8DB7C
:1014A000FDCF613021F42FEFFC0120830895FC0172
:1014B00010820895FC01613059F4208181E090E0B0
:1014C00002C0880F991F4A95E2F7822B8083089506
:1014D000908121E030E002C0220F331F4A95E2F7ED
:1014E0002095292320830895FC0160830895FC0141
:1014F000413059F4208181E090E002C0880F991FAB
:101500006A95E2F7822B80830895908121E030E094
:1015100002C0220F331F6A95E2F72095292320830A
:101520000895FC01808190E002C0959587956A95A9
:10153000E2F78170089583B7856083BF87B78160C4
:1015400087BF82E882BF089585B5836085BD87B770
:10155000806887BF85B5886085BD89EF83BD0895A4
:101560005D9BFECF8CB908958AB188618AB98BB131
:1015700082608BB98FEC89B98AB180688AB9089585
:101580001092BA02089581E08093BA0208959CB146
:101590009A3081F4E0911202AE2FB0E0AA5ABD4F0A
:1015A0009C93EF5FF0E0EA5AFD4F10821092120216
:1015B000EACF089580911202E82FF0E0EA5AFD4F39
:1015C00090838F5F8093120208958091BA020895EC
:1015D00086E592E00895052E97FB16F400940FD04F
:1015E00057FD05D023D007FC02D046F408C0509523
:1015F0004095309521953F4F4F4F5F4F08959095FF
:101600008095709561957F4F8F4F9F4F0895A29F52
:10161000B001B39FC001A39F700D811D1124911DC6
:10162000B29F700D811D1124911D0895A1E21A2E03
:10163000AA1BBB1BFD010DC0AA1FBB1FEE1FFF1F76
:10164000A217B307E407F50720F0A21BB30BE40BC6
:10165000F50B661F771F881F991F1A9469F760950D
:101660007095809590959B01AC01BD01CF010895C7
:10167000FB01DC018D91019080190110D9F3990BC8
:1016800008950F931F93CF93DF93E091BD02F091E4
:10169000BE02238121FF1BC08C01D0E0C0E0F80115
:1016A00081918F016091BD027091BE02DB0118969D
:1016B000ED91FC911997882331F00995892B79F3E5
:1016C000DFEFCFEFECCF8AE00995892B19F08FEF90
:1016D0009FEF02C08D2F9C2FDF91CF911F910F9113
:1016E00008950F931F93CF93DF93CDB7DEB72E9757
:1016F0000FB6F894DEBF0FBECDBF0D891E8986E000
:101700008C831A8309838FEF9FE79E838D83AE01BD
:10171000475E5F4F6F89788DCE01019610D0EF81C3
:10172000F885E00FF11F10822E960FB6F894DEBFF9
:101730000FBECDBFDF91CF911F910F9108952F92D2
:101740003F924F925F926F927F928F929F92AF9251
:10175000BF92CF92DF92EF92FF920F931F93CF939E
:10176000DF93CDB7DEB72B970FB6F894DEBF0FBE71
:10177000CDBF6C017B018A01FC0117821682838137
:1017800081FFBFC1CE0101963C01F6019381F701B3
:1017900093FD859193FF81917F01882309F4ADC169
:1017A000853239F493FD859193FF81917F018532D4
:1017B00021F4B60190E0D6D1E8CF912C212C312C28
:1017C000FFE1F315D8F08B3279F038F4803279F0FC
:1017D0008332A1F4232D20611DC08D3261F080334E
:1017E00069F4232D216016C0832D8260382EE32DED
:1017F000E4603E2E2AC0F32DF8601DC037FC2DC0DA
:1018000020ED280F2A3040F08E32B9F436FC75C135
:10181000232D2064322E19C036FE06C08AE0989E21
:10182000200D1124922E11C0EAE02E9E200D1124CD
:10183000222EF32DF0623F2E08C08C3621F4832D2A
:101840008068382E02C0883641F4F70193FD8591F7
:1018500093FF81917F018111B3CF982F9F7D955484
:10186000933028F40C5F1F4F9FE399830DC083369C
:1018700031F0833771F0833509F055C020C0F8018D
:10188000808189830E5F1F4F88248394912C53019C
:1018900012C02801F2E04F0E511CF801A080B18067
:1018A00036FE03C0692D70E002C06FEF7FEFC50107
:1018B0004ED14C018201F32DFF773F2E15C0280138
:1018C00022E0420E511CF801A080B18036FE03C018
:1018D000692D70E002C06FEF7FEFC5012DD14C0183
:1018E000F32DF0683F2E820133FC19C0822D90E069
:1018F00088169906A0F4B60180E290E033D12A94CC
:10190000F5CFF50137FC859137FE81915F01B60176
:1019100090E028D121102A9421E0821A91088114A4
:10192000910479F7E1C0843611F0893639F5F80170
:1019300037FE07C060817181828193810C5F1F4FE8
:1019400008C060817181072E000C880B990B0E5F17
:101950001F4FF32DFF763F2E97FF09C0909580957E
:10196000709561957F4F8F4F9F4FF0683F2E2AE013
:1019700030E0A30133D1882E861844C0853731F476
:10198000232D2F7EB22E2AE030E025C0932D997FA3
:10199000B92E8F36C1F018F4883579F0AEC0803793
:1019A00019F0883721F0A9C0E92FE061BE2EB4FEFE
:1019B0000DC0FB2DF460BF2E09C034FE0AC0292FD4
:1019C0002660B22E06C028E030E005C020E130E0FD
:1019D00002C020E132E0F801B7FE07C060817181EA
:1019E000828193810C5F1F4F06C06081718180E00E
:1019F00090E00E5F1F4FA301F1D0882E8618FB2DBB
:101A0000FF773F2E36FE0DC0232D2E7FA22E891488
:101A100058F434FE0BC032FC09C0832D8E7EA82EF4
:101A200005C0B82CA32C03C0B82C01C0B92CA4FE4F
:101A30000FC0FE01E80DF11D8081803321F49A2D45
:101A4000997EA92E09C0A2FE06C0B394B39404C027
:101A50008A2D867809F0B394A3FC10C0A0FE06C0BE
:101A6000B21480F4280C922C9B180DC0B21458F4B8
:101A7000B60180E290E076D0B394F8CFB21418F4B7
:101A80002B1802C0982C212CA4FE0FC0B60180E3B5
:101A900090E068D0A2FE16C0A1FC03C088E790E0E9
:101AA00002C088E590E0B6010CC08A2D867851F01E
:101AB000A1FE02C08BE201C080E2A7FC8DE2B6016C
:101AC00090E050D0891430F4B60180E390E04AD021
:101AD0009A94F8CF8A94F301E80DF11D8081B60144
:101AE00090E040D08110F6CF222009F44ECEB6010E
:101AF00080E290E037D02A94F7CFF6018681978173
:101B000002C08FEF9FEF2B960FB6F894DEBF0FBE8B
:101B1000CDBFDF91CF911F910F91FF90EF90DF909C
:101B2000CF90BF90AF909F908F907F906F905F907D
:101B30004F903F902F900895FC01059061507040A8
:101B40000110D8F7809590958E0F9F1F0895FC0186
:101B50006150704001900110D8F7809590958E0FDC
:101B60009F1F08950F931F93CF93DF93FB01238152
:101B700021FD03C08FEF9FEF2CC022FF16C04681CE
:101B80005781248135814217530744F4A081B181E4
:101B90009D012F5F3F4F318320838C9326813781B6
:101BA0002F5F3F4F3783268314C08B01EC01FB016D
:101BB0000084F185E02D0995892BE1F6D801169670
:101BC0008D919C911797019617969C938E931697DB
:101BD000CE01DF91CF911F910F910895FA01AA27AD
:101BE000283051F1203181F1E8946F936E7F6E5F60
:101BF0007F4F8F4F9F4FAF4FB1E03ED0B4E03CD00E
:101C0000670F781F891F9A1FA11D680F791F8A1FF0
:101C1000911DA11D6A0F711D811D911DA11D20D057
:101C200009F468943F912AE0269F11243019305D11
:101C30003193DEF6CF010895462F4770405D419302
:101C4000B3E00FD0C9F7F6CF462F4F70405D4A334F
:101C500018F0495D31FD4052419302D0A9F7EACF17
:101C6000B4E0A6959795879577956795BA95C9F746
:101C700000976105710508959B01AC010A2E069439
:101C80005795479537952795BA95C9F7620F731FF2
:0C1C9000841F951FA01D0895F894FFCF3D
:101C9C000000000200000000B00A000000003F0637
:101CAC005B4F666D7D077F6F3F3C58544C54494DDC
:101CBC00452053455454494E4700204E6F205469DB
:101CCC006D652020200054494D4520535441544506
:101CDC00005354415445203A204F4646200053545B
:101CEC00415445203A203120200053544154452082
:101CFC003A2032202020005354415445203A2033BE
:101D0C002020200020253264204D494E555445207A
:101D1C000020253032643A253032643A2530326462
:101D2C002020200057494E445F4F46460A0053542A
:101D3C00415445203A2057494E445F4F4646005780
:101D4C0045414B0A005354415445203A20574541D4
:101D5C004B004E4F524D414C0A00535441544520B8
:101D6C003A204E4F524D414C005354524F4E470A5D
:101D7C00005354415445203A205354524F4E47007F
:101D8C004155544F4D4F44450A005354415445203E
:0C1D9C003A204155544F4D4F4445000083
:00000001FF
